{
  "contractName": "EthSwap",
  "abi": [
    {
      "inputs": [
        {
          "internalType": "contract Token",
          "name": "_token",
          "type": "address"
        }
      ],
      "stateMutability": "nonpayable",
      "type": "constructor"
    },
    {
      "anonymous": false,
      "inputs": [
        {
          "indexed": false,
          "internalType": "address",
          "name": "account",
          "type": "address"
        },
        {
          "indexed": false,
          "internalType": "address",
          "name": "token",
          "type": "address"
        },
        {
          "indexed": false,
          "internalType": "uint256",
          "name": "amount",
          "type": "uint256"
        },
        {
          "indexed": false,
          "internalType": "uint256",
          "name": "rate",
          "type": "uint256"
        }
      ],
      "name": "TokensPurchased",
      "type": "event"
    },
    {
      "anonymous": false,
      "inputs": [
        {
          "indexed": false,
          "internalType": "address",
          "name": "account",
          "type": "address"
        },
        {
          "indexed": false,
          "internalType": "address",
          "name": "token",
          "type": "address"
        },
        {
          "indexed": false,
          "internalType": "uint256",
          "name": "amount",
          "type": "uint256"
        },
        {
          "indexed": false,
          "internalType": "uint256",
          "name": "rate",
          "type": "uint256"
        }
      ],
      "name": "TokensSold",
      "type": "event"
    },
    {
      "inputs": [],
      "name": "name",
      "outputs": [
        {
          "internalType": "string",
          "name": "",
          "type": "string"
        }
      ],
      "stateMutability": "view",
      "type": "function",
      "constant": true
    },
    {
      "inputs": [],
      "name": "redemptionRate",
      "outputs": [
        {
          "internalType": "uint256",
          "name": "",
          "type": "uint256"
        }
      ],
      "stateMutability": "view",
      "type": "function",
      "constant": true
    },
    {
      "inputs": [],
      "name": "token",
      "outputs": [
        {
          "internalType": "contract Token",
          "name": "",
          "type": "address"
        }
      ],
      "stateMutability": "view",
      "type": "function",
      "constant": true
    },
    {
      "inputs": [],
      "name": "buyTokens",
      "outputs": [],
      "stateMutability": "payable",
      "type": "function",
      "payable": true
    },
    {
      "inputs": [
        {
          "internalType": "uint256",
          "name": "_tokenAmount",
          "type": "uint256"
        }
      ],
      "name": "sellTokens",
      "outputs": [],
      "stateMutability": "nonpayable",
      "type": "function"
    }
  ],
  "bytecode": "0x60806040526040518060400160405280600e81526020017f4554482f43484553532053776170000000000000000000000000000000000000815250600090816200004a919062000345565b5060646002553480156200005d57600080fd5b5060405162001016380380620010168339818101604052810190620000839190620004aa565b80600160006101000a81548173ffffffffffffffffffffffffffffffffffffffff021916908373ffffffffffffffffffffffffffffffffffffffff16021790555050620004dc565b600081519050919050565b7f4e487b7100000000000000000000000000000000000000000000000000000000600052604160045260246000fd5b7f4e487b7100000000000000000000000000000000000000000000000000000000600052602260045260246000fd5b600060028204905060018216806200014d57607f821691505b60208210810362000163576200016262000105565b5b50919050565b60008190508160005260206000209050919050565b60006020601f8301049050919050565b600082821b905092915050565b600060088302620001cd7fffffffffffffffffffffffffffffffffffffffffffffffffffffffffffffffff826200018e565b620001d986836200018e565b95508019841693508086168417925050509392505050565b6000819050919050565b6000819050919050565b600062000226620002206200021a84620001f1565b620001fb565b620001f1565b9050919050565b6000819050919050565b620002428362000205565b6200025a62000251826200022d565b8484546200019b565b825550505050565b600090565b6200027162000262565b6200027e81848462000237565b505050565b5b81811015620002a6576200029a60008262000267565b60018101905062000284565b5050565b601f821115620002f557620002bf8162000169565b620002ca846200017e565b81016020851015620002da578190505b620002f2620002e9856200017e565b83018262000283565b50505b505050565b600082821c905092915050565b60006200031a60001984600802620002fa565b1980831691505092915050565b600062000335838362000307565b9150826002028217905092915050565b6200035082620000cb565b67ffffffffffffffff8111156200036c576200036b620000d6565b5b62000378825462000134565b62000385828285620002aa565b600060209050601f831160018114620003bd5760008415620003a8578287015190505b620003b4858262000327565b86555062000424565b601f198416620003cd8662000169565b60005b82811015620003f757848901518255600182019150602085019450602081019050620003d0565b8683101562000417578489015162000413601f89168262000307565b8355505b6001600288020188555050505b505050505050565b600080fd5b600073ffffffffffffffffffffffffffffffffffffffff82169050919050565b60006200045e8262000431565b9050919050565b6000620004728262000451565b9050919050565b620004848162000465565b81146200049057600080fd5b50565b600081519050620004a48162000479565b92915050565b600060208284031215620004c357620004c26200042c565b5b6000620004d38482850162000493565b91505092915050565b610b2a80620004ec6000396000f3fe60806040526004361061004a5760003560e01c806306fdde031461004f578063540385a31461007a5780636c11bcd3146100a5578063d0febe4c146100ce578063fc0c546a146100d8575b600080fd5b34801561005b57600080fd5b50610064610103565b6040516100719190610681565b60405180910390f35b34801561008657600080fd5b5061008f610191565b60405161009c91906106bc565b60405180910390f35b3480156100b157600080fd5b506100cc60048036038101906100c79190610708565b610197565b005b6100d66103d6565b005b3480156100e457600080fd5b506100ed6105cb565b6040516100fa91906107b4565b60405180910390f35b60008054610110906107fe565b80601f016020809104026020016040519081016040528092919081815260200182805461013c906107fe565b80156101895780601f1061015e57610100808354040283529160200191610189565b820191906000526020600020905b81548152906001019060200180831161016c57829003601f168201915b505050505081565b60025481565b6000600254826101a7919061088d565b905081600160009054906101000a900473ffffffffffffffffffffffffffffffffffffffff1673ffffffffffffffffffffffffffffffffffffffff166370a08231336040518263ffffffff1660e01b815260040161020591906108df565b602060405180830381865afa158015610222573d6000803e3d6000fd5b505050506040513d601f19601f82011682018060405250810190610246919061090f565b1015610287576040517f08c379a000000000000000000000000000000000000000000000000000000000815260040161027e90610988565b60405180910390fd5b600160009054906101000a900473ffffffffffffffffffffffffffffffffffffffff1673ffffffffffffffffffffffffffffffffffffffff166323b872dd3330856040518463ffffffff1660e01b81526004016102e6939291906109a8565b6020604051808303816000875af1158015610305573d6000803e3d6000fd5b505050506040513d601f19601f820116820180604052508101906103299190610a17565b503373ffffffffffffffffffffffffffffffffffffffff166108fc829081150290604051600060405180830381858888f19350505050158015610370573d6000803e3d6000fd5b507f697c42d55a5e1fed3f464ec6f38b32546a0bd368dc8068b065c67566d73f329033600160009054906101000a900473ffffffffffffffffffffffffffffffffffffffff16846002546040516103ca9493929190610a44565b60405180910390a15050565b6000600254346103e69190610a89565b905080600160009054906101000a900473ffffffffffffffffffffffffffffffffffffffff1673ffffffffffffffffffffffffffffffffffffffff166370a08231306040518263ffffffff1660e01b815260040161044491906108df565b602060405180830381865afa158015610461573d6000803e3d6000fd5b505050506040513d601f19601f82011682018060405250810190610485919061090f565b10156104c6576040517f08c379a00000000000000000000000000000000000000000000000000000000081526004016104bd90610988565b60405180910390fd5b600160009054906101000a900473ffffffffffffffffffffffffffffffffffffffff1673ffffffffffffffffffffffffffffffffffffffff1663a9059cbb33836040518363ffffffff1660e01b8152600401610523929190610acb565b6020604051808303816000875af1158015610542573d6000803e3d6000fd5b505050506040513d601f19601f820116820180604052508101906105669190610a17565b507f6faf93231a456e552dbc9961f58d9713ee4f2e69d15f1975b050ef0911053a7b33600160009054906101000a900473ffffffffffffffffffffffffffffffffffffffff16836002546040516105c09493929190610a44565b60405180910390a150565b600160009054906101000a900473ffffffffffffffffffffffffffffffffffffffff1681565b600081519050919050565b600082825260208201905092915050565b60005b8381101561062b578082015181840152602081019050610610565b60008484015250505050565b6000601f19601f8301169050919050565b6000610653826105f1565b61065d81856105fc565b935061066d81856020860161060d565b61067681610637565b840191505092915050565b6000602082019050818103600083015261069b8184610648565b905092915050565b6000819050919050565b6106b6816106a3565b82525050565b60006020820190506106d160008301846106ad565b92915050565b600080fd5b6106e5816106a3565b81146106f057600080fd5b50565b600081359050610702816106dc565b92915050565b60006020828403121561071e5761071d6106d7565b5b600061072c848285016106f3565b91505092915050565b600073ffffffffffffffffffffffffffffffffffffffff82169050919050565b6000819050919050565b600061077a61077561077084610735565b610755565b610735565b9050919050565b600061078c8261075f565b9050919050565b600061079e82610781565b9050919050565b6107ae81610793565b82525050565b60006020820190506107c960008301846107a5565b92915050565b7f4e487b7100000000000000000000000000000000000000000000000000000000600052602260045260246000fd5b6000600282049050600182168061081657607f821691505b602082108103610829576108286107cf565b5b50919050565b7f4e487b7100000000000000000000000000000000000000000000000000000000600052601260045260246000fd5b7f4e487b7100000000000000000000000000000000000000000000000000000000600052601160045260246000fd5b6000610898826106a3565b91506108a3836106a3565b9250826108b3576108b261082f565b5b828204905092915050565b60006108c982610735565b9050919050565b6108d9816108be565b82525050565b60006020820190506108f460008301846108d0565b92915050565b600081519050610909816106dc565b92915050565b600060208284031215610925576109246106d7565b5b6000610933848285016108fa565b91505092915050565b7f496e73756666696369656e742062616c616e6365210000000000000000000000600082015250565b60006109726015836105fc565b915061097d8261093c565b602082019050919050565b600060208201905081810360008301526109a181610965565b9050919050565b60006060820190506109bd60008301866108d0565b6109ca60208301856108d0565b6109d760408301846106ad565b949350505050565b60008115159050919050565b6109f4816109df565b81146109ff57600080fd5b50565b600081519050610a11816109eb565b92915050565b600060208284031215610a2d57610a2c6106d7565b5b6000610a3b84828501610a02565b91505092915050565b6000608082019050610a5960008301876108d0565b610a6660208301866108d0565b610a7360408301856106ad565b610a8060608301846106ad565b95945050505050565b6000610a94826106a3565b9150610a9f836106a3565b9250828202610aad816106a3565b91508282048414831517610ac457610ac361085e565b5b5092915050565b6000604082019050610ae060008301856108d0565b610aed60208301846106ad565b939250505056fea2646970667358221220cb368448751a3bbcf94c7926779fff2d82180894d9a6e54e8009668e9309991064736f6c63430008110033",
  "immutableReferences": {},
  "source": "// SPDX-License-Identifier: GPL-3.0-or-later\npragma solidity ^0.8.0;\n\nimport \"./Token.sol\";\n\n/// @title EthSwap contract\n/// @author Govind Thange\n/// @notice This contract facilitates swapping between ETH and CHESS tokens.\ncontract EthSwap {\n    string public name = \"ETH/CHESS Swap\";\n\n    Token public token;\n    uint256 public redemptionRate = 100;\n\n    event TokensPurchased(\n        address account,\n        address token,\n        uint256 amount,\n        uint256 rate\n    );\n    event TokensSold(\n        address account,\n        address token,\n        uint256 amount,\n        uint256 rate\n    );\n\n    /// @dev Set Token contract instance upon deployment\n    constructor(Token _token) {\n        token = _token;\n    }\n\n    /// @dev Transfer CHESS from EthSwap contract account to player's account after receiving ETH tokens.\n    function buyTokens() public payable {\n        uint256 tokenAmount = msg.value * redemptionRate;\n\n        // Ensure that the EthSwap exchange has sufficient token balance.\n        require(\n            token.balanceOf(address(this)) >= tokenAmount,\n            \"Insufficient balance!\"\n        );\n\n        // Transfer tokens from EthSwap to player (i.e. msg.sender)\n        token.transfer(msg.sender, tokenAmount);\n\n        emit TokensPurchased(\n            msg.sender,\n            address(token),\n            tokenAmount,\n            redemptionRate\n        );\n    }\n\n    /// @dev Transfer tokens from player's wallet back to the EthSwap\n    /// @param _tokenAmount is the total CHESS tokens to be transferred\n    function sellTokens(uint256 _tokenAmount) public {\n        uint256 etherAmount = _tokenAmount / redemptionRate;\n\n        // Ensure that the player has sufficient token balance.\n        require(\n            token.balanceOf(msg.sender) >= _tokenAmount,\n            \"Insufficient balance!\"\n        );\n\n        // Transfer tokens from player (i.e. msg.sender) to EthSwap contract\n        token.transferFrom(msg.sender, address(this), _tokenAmount);\n\n        // Transfer ethers from EthSwap exchange to the player.\n        payable(msg.sender).transfer(etherAmount);\n\n        emit TokensSold(\n            msg.sender,\n            address(token),\n            _tokenAmount,\n            redemptionRate\n        );\n    }\n}\n",
  "sourcePath": "/workspace/dapp/contracts/EthSwap.sol",
  "compiler": {
    "name": "solc",
    "version": "0.8.17+commit.8df45f5f.Emscripten.clang"
  },
  "schemaVersion": "3.4.10",
  "updatedAt": "2022-11-06T07:39:33.254Z",
  "networkType": "ethereum",
  "devdoc": {
    "author": "Govind Thange",
    "kind": "dev",
    "methods": {
      "buyTokens()": {
        "details": "Transfer CHESS from EthSwap contract account to player's account after receiving ETH tokens."
      },
      "constructor": {
        "details": "Set Token contract instance upon deployment"
      },
      "sellTokens(uint256)": {
        "details": "Transfer tokens from player's wallet back to the EthSwap",
        "params": {
          "_tokenAmount": "is the total CHESS tokens to be transferred"
        }
      }
    },
    "title": "EthSwap contract",
    "version": 1
  },
  "userdoc": {
    "kind": "user",
    "methods": {},
    "notice": "This contract facilitates swapping between ETH and CHESS tokens.",
    "version": 1
  }
}